:100000000C943C000C9459000C9459000C94590029
:100010000C9459000C9459000C9459000C945900FC
:100020000C9459000C9459000C9459000C945900EC
:100030000C9459000C94DB000C9459000C9459005A
:100040000C9420010C9435010C9459000C94590027
:100050000C9459000C9459000C9459000C945900BC
:100060000C9459000C94C3000C9459000C94590042
:100070000C9459000C94590011241FBECFEFCDBF32
:10008000DFE3DEBF29E3A4E1B8E301C01D92A233A0
:10009000B207E1F718E3A0E0B8E3EAE6F4E002C053
:1000A00005900D92A431B107D9F70E9451010C942B
:1000B0002B020C940000E82FEF70F0E0E65AFB47AB
:1000C00090819093293982958F70E82FF0E0E65A5D
:1000D000FB478081805880932839089540910E38DD
:1000E00050910F386091103870911138DB01CA01BE
:1000F000B695A7959795879540FF08C02CE5822770
:1001000023ED92272CEBA22724EBB22780930E3805
:1001100090930F38A0931038B09311380895982F0A
:100120008FEB890F8A31A8F08FE9890F8A3118F493
:1001300089EB890F089580ED890F8A3010F484E0EF
:10014000F8CF9B3219F09F3219F008958EE308958D
:100150008FE30895809124398823E1F3E0912439D5
:10016000E150E0932439F0E0EB5DF74C808190E0C2
:1001700008959091040895FFFCCF80930208082E03
:10018000000C990B08951F920F920FB60F92112435
:100190008F93EF93FF93EBE2F9E380818F5F80838E
:1001A00081E08093960AFF91EF918F910F900FBE9F
:1001B0000F901F9018951F920F920FB60F92112457
:1001C0002F933F938F939F9380912A398823A9F18E
:1001D000909129399093C40891E0892780932A3916
:1001E000809108048093123830910804809112386D
:1001F0002091123890911238832782238927809387
:100200001238809127398F5F809327398091273961
:100210008D3039F480912B398F5F80932B39109278
:10022000273981E08093860A9F918F913F912F918A
:100230000F900FBE0F901F90189590912839CACF3C
:100240001F920F920FB60F9211248F93EF93FF938B
:10025000E0E0F4E082E085838683FF91EF918F9167
:100260000F900FBE0F901F9018951F920F920FB610
:100270000F9211248F93EF93FF93E091243981E043
:100280008E0F80932439F0E080910008EB5DF74CED
:100290008083FF91EF918F910F900FBE0F901F9071
:1002A0001895F89444E04093210487E490E180930A
:1002B00008089093090850EC509306088091E305D4
:1002C00081608093E3058091C00880628093C008BC
:1002D0008091C10884608093C1088091C2088160C8
:1002E0008093C20892E09093010485E080934104DA
:1002F0009093250420E2209322048091C00881601D
:100300008093C0081092810A60E177E260938C0AC2
:1003100070938D0A81E08093850A8093800A109201
:10032000910A6FEF7FEF60939C0A70939D0A809310
:10033000950A8093900A909321044093000A33E336
:100340003093010A6FE576E76093260A7093270AD7
:10035000EFE2FBE3E093280AF093290A60932A0A6C
:1003600070932B0A3091000A31603093000A38E014
:10037000309314043093150430931604309317040B
:1003800080930006109201062093020630E4309319
:10039000080630E33093090690930C0680930A0612
:1003A00038ED34BF80936100F894409321046DE6EA
:1003B00075E0609308087093090830E830930508E9
:1003C0005093060840E058E340932E3950932F395C
:1003D00040932C3950932D3978947894809322044B
:1003E00090930104209325042093210490E080E061
:1003F0000E945B00DFEFC0911238C095CD23D091F1
:100400001238C6FF0AC0809126398F3F31F08F5FC6
:100410008093263990E00E945B00C5FF0AC080915E
:100420002639882331F081508093263990E00E944C
:100430005B008091123884FDDECF80911006909190
:100440001106A0911206B09113068093263990E010
:0A0450000E945B00D0CFF894FFCFAC
:10045A00086B44412311104B000302301C60141630
:10046A000000000300000000B900AA000000900389
:04047A000511FF0069
:00000001FF
